:020000040800F2
:1000000000000320C50100081B1C0008111800088F
:10001000191C0008150300085D1D00080000000001
:10002000000000000000000000000000A91C000803
:1000300025030008000000001D1C0008AB1C000880
:10004000DF010008DF010008DF010008DF01000810
:10005000DF0100081F1C0008DF010008DF010008A5
:10006000DF010008DF010008DF010008DF010008F0
:10007000DF010008DF010008DF010008DF010008E0
:10008000DF010008DF010008DF010008DF010008D0
:10009000DF010008DF010008DF010008DF010008C0
:1000A000DF010008DF010008DF010008DF010008B0
:1000B000DF010008DF010008DF010008DF010008A0
:1000C000DF010008DF010008DF010008DF01000890
:1000D000DF010008DF010008DF010008DF01000880
:1000E000DF010008DF010008DF010008DF01000870
:1000F000DF010008DF010008DF010008DF01000860
:10010000DF010008DF010008DF010008DF0100084F
:10011000DF010008DF010008DF010008DF0100083F
:10012000DF010008DF010008DF010008DF0100082F
:10013000DF010008DF010008DF010008DF0100081F
:10014000DF010008DF010008DF010008DF0100080F
:10015000DF010008DF010008DF010008DF010008FF
:10016000DF010008DF010008DF010008DF010008EF
:10017000DF010008DF010008DF01000800000000C7
:10018000DF010008DF010008DF010008DF010008CF
:10019000DF010008DF010008DF010008DF010008BF
:1001A00015180008DF01000819030008DFF810D057
:1001B00000F09EF8004800479D1D0008AFF3008046
:1001C000000003200648804706480047FEE7FEE798
:1001D000FEE7FEE7FEE7FEE7FEE7FEE7FEE7FEE7F7
:1001E0004D1D0008AD0100082DE9F05F0546002017
:1001F00092469B4688460646814640241BE0284698
:1002000041464746224600F062F853465A46C01A15
:10021000914110D311461846224600F049F82D1A94
:1002200067EB01084F4622460120002100F040F80C
:1002300017EB00094E41201EA4F10104DFDC484603
:1002400031462A464346BDE8F09F10B5441A03469E
:10025000944209D28418114403E011F8013D04F8D6
:10026000013D521EF9D210BD40EA0104A40703D09B
:1002700009E010C9121F10C3042AFAD203E011F8D2
:10028000014B03F8014B521EF9D210BDD2B201E06E
:1002900000F8012B491EFBD270470022F6E710B58B
:1002A00013460A4604461946FFF7F0FF204610BDE4
:1002B000202A04DB203A00FA02F100207047914026
:1002C000C2F1200320FA03F3194390407047202A1B
:1002D00004DB203A21FA02F00021704721FA02F3F0
:1002E000D040C2F1200291400843194670470000F7
:1002F000064C074D06E0E06840F0010394E8070073
:1003000098471034AC42F6D3FFF754FFCC1D0008D9
:10031000FC1D0008FEE70000014800F0E2B8000004
:1003200020000010704772B6FEE7F0B5D1E907353E
:100330004C6A0A68C2B102682B4322F4F8421443A3
:1003400023430360D1E901231A43D1E90334234352
:100350001A434B6989691A430A4341686FF30E01D6
:100360000A4342600020F0BDD1E901263243D1E9C1
:1003700003673E4332434E69896932430A431A4355
:100380002A43016822436FF30E010A430260E9E742
:10039000426943F6FE739A4342EA410141610020FB
:1003A000704770B514460546D1E9000210438A68CB
:1003B0006FF01F03C96803EB421242EA4121084370
:1003C00029696FF315010843286100F005FB064613
:1003D00009E0601C07D024B100F0FEFA801BA042A7
:1003E00001D9032070BDA8698006F2D4002070BD39
:1003F000F0B56FF00F058C8A2E014FEA054ECB68E1
:100400002F034FF07F4C0EEB04540AB31A03A2F5EE
:100410008052836822431D4C23401A438260D1E9F5
:10042000002305EB0313521E1A438B6806EB0323CC
:100430001A430B8A097E07EB03431A430CEB016155
:100440000A43C16801F070410A43C2600020F0BD58
:10045000D1E9002E05EB0E15521E2A438D6806EBDE
:1004600005252A430A4D05EB03331A430B8A097EFF
:1004700007EB03431A4322430CEB01610A438168F3
:1004800001F070410A438260E0E70000FF0F0FFFB8
:1004900000F0FFFF10B5040002D0607910B106E053
:1004A000012010BD00202071204600F005F8012039
:1004B0006071002010BD000008B500680649884240
:1004C00008D10648016841F480510160006800F4D9
:1004D0008050009008BD00000030024030380240DB
:1004E00070472DE9F0470446006846680568F10743
:1004F0004FF004084FF000074FF0010914D0E90550
:1005000012D5016821F480710160E06B40F00100B8
:10051000E0632168C1F8089084F8398084F8387065
:10052000616909B120468847B00615D5A80413D5DE
:100530002068016821F40051016021682020886052
:10054000E06B40F00200E06384F8398084F8387092
:10055000616909B120468847300715D5280513D5AC
:100560002068016821F4006101602168082088602A
:10057000E06B40F00400E06384F8398084F8387060
:10058000616909B12046884770070CD568050AD50E
:100590002068016821F4806101602168C1F8088049
:1005A000204600F05AF8B00713D5A80511D52068E9
:1005B000016821F400710160216802208860E06B0D
:1005C000E06384F8399084F83870216909B12046D5
:1005D0008847F00612D5E80410D52068016821F498
:1005E00080510160216810208860E06BE06384F82E
:1005F000399084F838702046FFF772FFBDE8F08725
:1006000070B5040004D094F83900002510B106E05C
:10061000012070BD84F83850204600F01FF80220F9
:1006200084F8390020680168626821F44031114380
:1006300001602068416BA26821F00701114341630A
:100640002068016CE2686FF30D0111430164E563FA
:10065000012084F83900002070BD704708B500689B
:100660000B49884212D10B48016841F40001016036
:100670000068002200F40000009011465A2000F0AB
:1006800045FCBDE808405A2000F032BC08BD00001F
:1006900000B002403038024070B5044600F09CF9CA
:1006A0000546601C02D004480078044400F094F928
:1006B000401BA042FAD370BD100000102DE9F0419C
:1006C00086B014216846FFF7E8FD2B480168002931
:1006D0004FD14FF00108C0F800802848002401687D
:1006E00041F0010101600068022500F00100059061
:1006F0004FF63F00CDE9000502AA03260C2782E849
:10070000D00069461E4800F047F802AA694682E810
:10071000D000CDE900851B4800F03EF848F23310C8
:10072000CDE9000502AA694682E8D000164800F02B
:1007300033F84FF68370CDE9000502AA694682E8D6
:10074000D000124800F028F8C020CDE9000502AA28
:10075000694682E8D0000E4800F01EF84CF20370A3
:10076000CDE9000502AA694682E8D000094800F0F8
:1007700013F806B0BDE8F0810800001038380240D8
:10078000001402400008024000180240001002401D
:10079000001C0240000C02402DE9F84FDFF8F8A1E0
:1007A0000022012403254FF00F090AF1040BAAF1DE
:1007B000040E00BF0B6804FA02F63340B34270D156
:1007C0000F7907F00307012F01D0022F16D1876898
:1007D0004FEA420805FA08FC27EA0C07D1F80CC0DA
:1007E0000CFA08FC4CEA070CC0F808C04768B7438D
:1007F0000E79C6F3001696403E4346600E79F643E6
:10080000B6070AD0C7684FEA420C05FA0CF6B743A0
:100810008E6806FA0CF63E43C6600E7906F00306B3
:10082000022E10D1D60800EB8608D8F820605707B2
:100830004FEAD76C09FA0CF7BE430F6907FA0CF7B9
:100840003743C8F8207006684FEA420C05FA0CF7E7
:10085000BE430F7907F0030707FA0CF73743076029
:100860004E6816F4403F1CD04C4E376847F4804722
:100870003760366822F0030706F480460096484E3B
:1008800007EB060CDCF8086897073F0F09FA07F832
:1008900026EA0806DFF80C81404503D14FF0000836
:1008A00041E072E0DFF80081404502D14FF00108DD
:1008B00039E0DFF8F880404502D14FF0020832E01D
:1008C000DFF8EC80404502D14FF003082BE0DFF861
:1008D000E480404502D14FF0040824E0DFF8D880DE
:1008E000404502D14FF005081DE0DFF8D0804045BB
:1008F00002D14FF0060816E0DFF8C480404502D16F
:100900004FF007080FE0DFF8BC80404502D14FF000
:10091000080808E0DFF8B080404502D14FF0090830
:1009200001E04FF00A0808FA07F848EA0608CCF890
:100930000888DAF800605746D1F804C09E435FEAA1
:10094000CC2C00D51E433E60DBF800605F46D1F83A
:1009500004C09E435FEA8C2C00D51E433E60DEF847
:1009600000607746D1F804C09E435FEA8C3C00D516
:100970001E433E60084F083F3E68D1F804C09E43C6
:100980005FEACC3C00D51E433E60521C102AFFF4A7
:1009900011AFBDE8F88F0000083C01404438024028
:1009A0000030014000000240000402400008024004
:1009B000000C0240001002400014024000180240E7
:1009C000001C024000200240002402400AB1816164
:1009D00070470904FBE70000014880687047000089
:1009E000100000100248816802781144816070474D
:1009F000100000100B4810B5016841F4007101604F
:100A0000016841F480610160016841F48071016016
:100A1000032000F09BFA002000F006F800F040FAF6
:100A2000002010BD003C024070B50D4D04464FF44F
:100A30007A712878B1FBF0F00A490968B1FBF0F04F
:100A400000F0D2FE48B9102C07D200222146501ED9
:100A500000F05CFA00206C6070BD012070BD0000E9
:100A6000100000101C0000102DE9F041044690F821
:100A7000A00016460F4601281DD0012584F8A0507D
:100A8000022084F8A10006EB860000EBC60004EB10
:100A9000800034223830FFF7D8FB324639462046F2
:100AA00000F0BEFE2068456284F8A150002084F862
:100AB000A000BDE8F0810220FBE770472DE9F0417E
:100AC00004460068856B466B69074FF004084FF0D9
:100AD000000715D5710713D5416B21F0040141635F
:100AE0002168C1F83C80D4F8A41041F00101C4F899
:100AF000A41084F8A18084F8A0702046FFF7DDFFE1
:100B0000A80716D5B00714D52068416B21F0020163
:100B1000416321680220C863D4F8A40040F00200B9
:100B2000C4F8A40084F8A18084F8A0702046FFF7E0
:100B3000C4FF05EA0600C0074FF001080ED0206888
:100B4000416B21F0010141632168C1F83C8084F8C8
:100B5000A18084F8A070204600F090F8280710D5F6
:100B600030070ED52068416B21F0080141632168F0
:100B70000820C86384F8A18084F8A070204600F0A3
:100B80008DF9BDE8F081000070B5040004D094F840
:100B9000A100002510B106E0012070BD84F8A0502E
:100BA000204600F06DF8022084F8A10020688169D9
:100BB00021F070418161D4E901010843D4E90312B5
:100BC0001143084321688A691043886121688A6853
:100BD000294802408A60A18A0A0421688B68A669B4
:100BE000334313438B602168CA680240CA60A18BFB
:100BF0000B042168CA68266A32431A43CA60216816
:100C00000A6902400A61A18C22680B041169A66A74
:100C100031431943116121684A6902404A61A08D3C
:100C2000010420684269236B1A430A43426194F825
:100C300035002168020294F83600CB6A03F07F4346
:100C4000CB622168CB6A94F8346042EA00403343B7
:100C50000343CB622068416B41F006014163206889
:100C6000816941F001018161C4F8A450012084F838
:100C7000A100002070BD000000F800F070470000E7
:100C80002DE9F04F93B0044614216846FFF705FBA9
:100C9000302105A8FFF701FB7549206888427DD106
:100CA0000820059000243C200E94022509900B9505
:100CB00005A800F095F908B1FFF735FB6D4801680C
:100CC00041F080610160006800F080601190694827
:100CD0001438016841F010010160016801F0100151
:100CE0001191016841F480710160016801F4807123
:100CF0001191016841F020010160016801F02001BB
:100D00001191016841F080010160016801F08001EA
:100D10001191016841F001010160016801F00101D8
:100D20001191016841F002010160016801F00201C6
:100D30001191016841F040010160016801F040013A
:100D40001191016841F004010160016801F00401A2
:100D50001191016841F008010160006802AA00F0E9
:100D6000080011907020CDE9000503260E2782E8C7
:100D7000D00069464048FFF70FFD40F21560CDE90D
:100D8000000502AA694682E8D0003C48FFF704FD4E
:100D90004FF4806869463A4802AA00E064E082E8BD
:100DA000D000CDE90085FFF7F7FC4AF20C10CDE941
:100DB000000502AA694682E8D0003248FFF7ECFC41
:100DC00041F60800CDE9000502AA694682E8D00094
:100DD0002D48FFF7E1FCCDE9006502AA4FF00909B3
:100DE000DFF8A8B082E8500269465846FFF7D4FC05
:100DF0004FF4C650CDE9000502AADFF894A082E8BE
:100E0000D00069465046FFF7C7FC8020CDE90005B9
:100E100002AA694682E8D0001E48FFF7BDFC4020C8
:100E2000CDE9000502AA694682E8D0001A48FFF71A
:100E3000B3FC02AA694682E85002CDE9008550461B
:100E4000FFF7AAFC3002CDE9000502AA694682E854
:100E5000D0005846FFF7A0FC00221146582000F0B1
:100E600055F8582000F044F813B0BDE8F08F0000AA
:100E70000068014044380240001002400020024057
:100E800000140240001C0240000002400004024026
:100E90000018024000080240000C024070470000A9
:100EA000124808B5016841F480410160006800F40F
:100EB000804000900D48001F016841F080510160A2
:100EC0000068002200F0805000901146052000F0DC
:100ED0001DF8052000F00CF800221146052000F056
:100EE00015F8BDE80840052000F002B8443802407B
:100EF000002809DB00F01F02012191404009800019
:100F000000F1E020C0F8001170470000F0B40E4B73
:100F10001B680C46C3F30223C3F10705042D00D957
:100F20000425191D072901D2002300E0DB1E01263C
:100F300006FA05F1491E214099409E40761E164052
:100F40003143F0BC00F00BBF0CED00E0064900F0AF
:100F5000070208684FF6FF03184040EA0220034AE0
:100F600010430860704700000CED00E00000FA0537
:100F70002DE9F8431748016841F08051016000688D
:100F8000154F00F08050012600903E64FFF724FDCD
:100F900005464FF47A78114C05E000BFFFF71CFDC1
:100FA000401B40450DD86068C003F7D57E64FFF74D
:100FB00013FD0546464607E0FFF70EFD401BB04215
:100FC00002D90320BDE8F88360688003F4D50020CF
:100FD000F8E700004038024000000E420070004078
:100FE0002DE9F84F04460068DFF824A2894F8A4DA6
:100FF000C1074FF001084FF0000603D1810701D46B
:10100000400648D5CAF86860FFF7E6FC814605E06F
:10101000FFF7E2FCA0EB090002287DD82868000158
:10102000F6D42078C1077D4805D06168227A89010D
:1010300041EA027101602178890711D5016862686F
:10104000237B9201C1F3027142EA036242EA017119
:1010500001603968E26921F01F01521E11433960B5
:101060002178490608D56168227B890141EA02613D
:10107000227A41EA02710160CAF86880FFF7ACFC8D
:10108000814605E0FFF7A8FCA0EB0900022843D841
:1010900028680001F6D52068410701D400074ED525
:1010A000CAF87060FFF798FC814605E0FFF794FCF2
:1010B000A0EB090002282FD82868C0438000F5D58E
:1010C00020784107564814D501682269237D920192
:1010D000C1F3027142EA036242EA017101603968B8
:1010E000226A6FF0FF0321F4F85103EB022211434F
:1010F00039602178090712D501682269C1F30361BB
:10110000920142EA0161227E41EA0271016038687F
:10111000616A20F4403000E051E008433860CAF8CA
:101120007080FFF759FC074605E000BFFFF754FC4D
:10113000C01B022843D82868C0438000F6D420781A
:10114000800653D534484030016841F08051016039
:101150000068344D00F080500090286840F48070A2
:101160002860FFF739FC074605E000BFFFF734FCB5
:10117000C01B022823D82868C005F7D5274D143D89
:10118000286810F4407020D0218D01F44071814214
:101190001BD0286820F440712348C0F80080066006
:1011A00029602868C00710D0FFF716FC064641F2F8
:1011B000883707E0FFF710FC801BB84202D90320F4
:1011C000BDE8F88F28688007F4D5A16A1248C1F3FA
:1011D00001220830032A13D0016821F4F8110160BC
:1011E0002868218DC1F30B01084328602078C006D0
:1011F00004D50E4994F82C00C1F8E0010020DFE787
:1012000002680B4B22F4F81219400A430260E7E728
:10121000000047428C3802400038024084380240C7
:101220008838024000700040400E4742001047429C
:10123000FFFCFF0F2DE9F0470E46050065D0DFF8F3
:101240001481D8F80000F7B200F00F00B04207D2C6
:1012500088F80070D8F8000000F00F00B04254D1B8
:1012600028683D4C810712D5400703D5206840F41B
:10127000E05020602878000703D5206840F46040E3
:1012800020602068A96820F0F000084320602878DA
:10129000C0072DD0304968680839012812D00228CB
:1012A00013D0032811D00968890700292DDA216895
:1012B00021F0030101432160FFF78EFB814641F2DB
:1012C000883A0EE009688903EFE709688901ECE7CD
:1012D000FFF782FBA0EB0901514502D90320BDE8CD
:1012E000F0872068696800F00C00B0EB810FEFD147
:1012F000D8F80010404601F00F01B14207D907703D
:10130000006800F00F00B04201D00120E7E7287824
:10131000400705D52068E96820F4E05008432060C4
:101320002878000706D52068296920F4604040EA43
:10133000C100206000F018F82168084AC1F30311C9
:10134000515CC8400649086006480068FFF76CFB1E
:101350000020C4E7003C024008380240BA1D0008E3
:101360001C00001014000010154810B5006810F0A3
:101370000C02144813D01449042A0FD0082A0ED1A5
:101380000F4C241F2268236802F03F025B0207D53E
:101390002068C0F38810A0FB010106E0084610BDDC
:1013A0002168C1F38811A1FB00010023FEF71CFF97
:1013B0002168C1F30141491C4900B0FBF1F010BDA7
:1013C000083802400024F40040787D012DE9F84FF0
:1013D00004006ED02078DFF84C93C007A9F1040513
:1013E0004AD009F104000168C1F38101012908D044
:1013F0000068C0F3810002280AD1D9F80000400239
:1014000006D52868800337D560680028E1D033E02E
:101410006068B0F5803F10D0B0F5A02F286810D0DC
:1014200020F480302860286820F4802028606068DC
:10143000A8B1FFF7D1FA06460DE0286840F48030E5
:10144000F4E740F480202860F7E700BFFFF7C4FA14
:10145000801B642873D828688003F7D50CE0FFF759
:10146000BBFA064605E000BFFFF7B6FA801B64280A
:10147000F0D828688003F7D42078DFF8AC828007A2
:101480004FF0000A3ED5A748001D016811F00C0F6F
:1014900008D00068C0F3810002280BD1D9F8000001
:1014A000400207D42868800716D5E068012800D1DB
:1014B00012E033E1E068B8B10120C8F80000FFF79E
:1014C0008BFA064605E000BFFFF786FA801B02286C
:1014D000C0D828688007F7D52868216920F0F8006F
:1014E00040EAC10028600DE0C8F800A0FFF774FAD8
:1014F000064604E0FFF770FA801B02281FD8286810
:101500008007F7D42078000722D5864F8748616985
:10151000703771B101210160FFF75EFA064604E001
:10152000FFF75AFA801B022809D838688007F7D5D8
:101530000EE0C0F800A0FFF74FFA064605E082E093
:10154000FFF74AFA801B02287DD838688007F7D455
:101550002078400768D5DFF8CCB100270BF13C0BB1
:10156000DBF80000C0000BD4DBF8001041F0805124
:10157000CBF80010DBF80000012700F0805000904D
:101580006B4E3068C00510D4306840F48070306015
:10159000FFF722FA009005E0FFF71EFA0099401AC3
:1015A000022850D83068C005F6D55E4EA0686C366B
:1015B00001280FD00528306810D020F001003060DD
:1015C000306820F004003060A068B8B1FFF704FA7A
:1015D00000900FE0306840F00100F4E740F00400B4
:1015E0003060F7E7FFF7F8F90099411A41F28830C7
:1015F000814266D830688007F4D50EE0FFF7ECF939
:10160000009007E0FFF7E8F90099411A41F28830AD
:10161000814256D830688007F4D42FB1DBF800102F
:1016200021F08051CBF80010A069C8B33D49091DD5
:101630000968C1F3810102294AD00228504607D027
:10164000C8F8600000E03CE0FFF7C6F904463BE064
:101650004746C8F86000FFF7BFF9064605E000BF3F
:10166000FFF7BAF9801B02282BD828688001F7D42D
:10167000D4E907010843A16A2E4A490802EB014157
:10168000626A41EA8211084394F82C1040EA016131
:10169000C9F8001001203866FFF79EF9044606E0FD
:1016A0003EE000BFFFF798F9001B022809D8286820
:1016B0008001F7D534E000BFFFF78EF9001B022848
:1016C00002D90320BDE8F88F28688001F4D427E010
:1016D0000128F7D0D9F80000E26900F480019142B6
:1016E0001CD1226A00F03F01914217D147F6C07128
:1016F000626A0140B1EB821F10D1A26A4FF0FF3342
:1017000000F4403103EB5202B1EB024F06D194F8E2
:101710002C1000F07060B0EB016F01D00120D1E718
:101720000020CFE70438024000004742800E4742C5
:10173000007000400000FFFF70B50D46040003D0AC
:1017400094F82C0010B107E0012070BD002084F84F
:101750002D00204600F011F8022084F82C00211DF5
:101760002068FEF7E2FDD4E900022946FEF740FEBC
:10177000012084F82C00002070BDFEF79FBF10B53B
:10178000044690F82C00022804D094F82C0001287C
:1017900001D0012010BD022084F82C002068FEF743
:1017A000F7FD012084F82C00002010BD70B5044620
:1017B00090F82C000D46022804D0012803D00528FB
:1017C00001D0012070BD022084F82C002068FEF7B3
:1017D000E8FD2868022805D05FF0010084F82C009D
:1017E000002070BD0520F9E710B5401EB0F1807FE4
:1017F00001D3012010BD4FF0E02460610F2160177C
:1018000000F0ADFA0020A06107202061002010BD8B
:10181000FEE700000148FFF751B9000094000010F6
:10182000F0B503688C88DD68C5F30B452C442504AE
:10183000882404EBC2141E5906F470461E51036836
:101840000F68DE68C6F30B46761C3E442E431E51DD
:1018500004688B89E568C5F30A052B441D048C23B5
:1018600003EBC213E65806F47046E65004688F682E
:10187000E668C6F30A06761C3E442E43E6509423DF
:10188000046803EBC213E55825F00705E550056829
:101890000C69EC5091F831300C7E1F0226069C2416
:1018A000056804EBC21491F8323055F804C04FF0CB
:1018B000000C45F804C091F8305046EA03433D431C
:1018C0001D4303681D519823046803EBC213E558B8
:1018D00025F0FF05E55005684C69EC50A02304682D
:1018E00003EBC213E55840F20776B543E550D1E962
:1018F00007452C430568EC50AC23046803EBC21386
:10190000E55844F803C005684C6AEC500B698BB38A
:10191000012B32D0042B32D0022B30D0032B2ED00F
:10192000072B2CD00123B024056804EBC2142E59D8
:1019300006F0E0262E51D1E90065AD1B0E8D5D430A
:101940005E43ED1C45EA064305682B51B423046849
:1019500003EBC213E5586FF30A05E5500468C96A42
:10196000E1500068842101EBC211425842F00102AB
:101970004250F0BDFFE70423D5E70323D3E702235A
:10198000D1E70000074910B5054808600846FEF792
:1019900081FD002803D0BDE81040FEF7C4BC10BD97
:1019A00000300240000000100A4810B508490160EC
:1019B0004FF440314160022181600021C160FEF797
:1019C0001FFE002803D0BDE81040FEF7ACBC10BDE0
:1019D00000B002402000001000B587B01C2168460E
:1019E000FEF75BFC1548144900F1080C0160012169
:1019F00041600021042210238CE80E004023436143
:101A00009301C0E90631530203629302C0E9093130
:101A1000022007218DE8070003910321CDE904107E
:101A2000069069460548FFF787FE08B1FEF77BFC84
:101A300000F0F6F807B000BD400100A06000001003
:101A400030B587B014216846FEF727FC2E480024E5
:101A5000016841F010010160016801F01001059179
:101A6000016841F480710160016801F480710591A1
:101A7000016841F020010160016801F02001059139
:101A8000016841F080010160016801F08001059169
:101A9000016841F004010160016801F00401059151
:101AA000016841F001010160016801F00101059147
:101AB000016841F002010160016801F00201059135
:101AC000016841F040010160016801F040010591A9
:101AD000016841F00801016000680C4D00F0080049
:101AE0000590002290212846FEF770FF902000907C
:101AF0000120CDE901040320039069462846FEF742
:101B00004BFE07B030BD000030380240000C0240F0
:101B1000F0B59BB034216846FEF7BFFB34210DA819
:101B2000FEF7BBFB012280213648FEF74FFF374806
:101B300035490024C0E900148460C46004612E218A
:101B40004461C0E906411721016240F24E31416211
:101B500040F2F711816240F26231C16240F20D2120
:101B6000016380F8344080F83540FF2580F8365016
:101B7000FFF70AF808B1FEF7D6FB6420CDE9004074
:101B80000221CDE90415CDE902402149CDE9091032
:101B90000B9006A84FF4C066072780E8D0008DF8A8
:101BA00030408DF831508DF8324000226946174898
:101BB000FEF75AFF08B1FEF7B6FBC82040F22B1122
:101BC0000FAACDE90D0182E8330012480122CDE9C8
:101BD00015704FF4487017904FF4F0701890CDE9DD
:101BE00013468DF864408DF865408DF866400DA968
:101BF0000648FEF739FF002801D0FEF794FB1BB022
:101C0000F0BD0000000C024000680140940000108C
:101C1000000030D000B83BD0FEE7FEE770477047C9
:101C20002DE9FF410126082500240096CDE9015445
:101C30004FF6FF78424669461A480394FFF7B6FD0F
:101C400000282DD10A20FEF727FD02270097CDE9B5
:101C500001544246694613480394FFF7A7FD002844
:101C60001ED10320CDE90274CDE900054446424669
:101C700069460C48FFF79AFD002811D140F2222056
:101C8000039004218DE86200224669460548FFF76B
:101C90008DFD002804D140F26A510248FFF76FFD24
:101CA000BDE8FF81600000107047FEF79BBE00009A
:101CB00070B592B030216846FEF7EFFA14210CA8F7
:101CC000FEF7EBFA1F480025016841F080510160E2
:101CD000006800F0805011901B48016841F44041B9
:101CE00001600068022400F440401190012000903F
:101CF000000401908001CDE906400F260896D82007
:101D0000CDE9090404200B906846FFF75FFB08B19A
:101D100072B6FEE7FFF72CF908B172B6FEE74FF492
:101D2000A050CDE90E504FF48050CDE90C641090D6
:101D300005210CA8FFF77EFA002801D072B6FEE755
:101D400012B070BD40380240007000400248016887
:101D500041F470010160704788ED00E0FEE709077B
:101D6000090E002804DB00F1E02080F80014704721
:101D700000F00F0000F1E02080F8141D704702E031
:101D800008C8121F08C1002AFAD170477047002006
:101D900001E001C1121F002AFBD17047FEF72AFEA5
:101DA000FFF786FFFFF7EEFDFFF74AFEFFF714FE91
:101DB000FFF7FAFDFFF7ACFEFEE7000000000000B1
:101DC000000001020304060708090000FC1D0008CA
:101DD00000000010200000007E1D0008FC1D00080F
:101DE00000000020000003008E1D00081C1E0008DB
:101DF000200000101C0100008E1D000800000000E3
:101E000000000000000000000000000001000000D1
:0C1E100010000000000000000024F4009E
:04000005080001AD41
:00000001FF
