:020000040800F2
:1000000000000320C50100082B1800089B140008FD
:1000100029180008F502000809190008000000006E
:10002000000000000000000000000000311800087F
:10003000F7020008000000002D180008331800081F
:10004000DF010008DF010008DF010008DF01000810
:10005000DF0100082F180008DF010008DF01000899
:10006000DF010008DF010008DF010008DF010008F0
:10007000DF010008DF010008DF010008DF010008E0
:10008000DF010008DF010008DF010008DF010008D0
:10009000DF010008DF010008DF010008DF010008C0
:1000A000DF010008DF010008DF010008DF010008B0
:1000B000DF010008DF010008DF010008DF010008A0
:1000C000DF010008DF010008DF010008DF01000890
:1000D000DF010008DF010008DF010008DF01000880
:1000E000DF010008DF010008DF010008DF01000870
:1000F000DF010008DF010008DF010008DF01000860
:10010000DF010008DF010008DF010008DF0100084F
:10011000DF010008DF010008DF010008DF0100083F
:10012000DF010008DF010008DF010008DF0100082F
:10013000DF010008DF010008DF010008DF0100081F
:10014000DF010008DF010008DF010008DF0100080F
:10015000DF010008DF010008DF010008DF010008FF
:10016000DF010008DF010008DF010008DF010008EF
:10017000DF010008DF010008DF01000800000000C7
:10018000DF010008DF010008DF010008DF010008CF
:10019000DF010008DF010008DF010008DF010008BF
:1001A000A91400089D140008DF010008DFF810D032
:1001B00000F08EF80048004749190008AFF30080AE
:1001C000000003200648804706480047FEE7FEE798
:1001D000FEE7FEE7FEE7FEE7FEE7FEE7FEE7FEE7F7
:1001E000F9180008AD0100082DE9F05F0546002070
:1001F00092469B4688460646814640241BE0284698
:1002000041464746224600F053F853465A46C01A24
:10021000914110D311461846224600F03AF82D1AA3
:1002200067EB01084F4622460120002100F031F81B
:1002300017EB00094E41201EA4F10104DFDC484603
:1002400031462A464346BDE8F09F40EA01039B073A
:1002500003D009E008C9121F08C0042AFAD203E03B
:1002600011F8013B00F8013B521EF9D27047D2B29F
:1002700001E000F8012B491EFBD270470022F6E78F
:1002800010B513460A4604461946FFF7F0FF20460C
:1002900010BD202A04DB203A00FA02F1002070474A
:1002A0009140C2F1200320FA03F3194390407047B4
:1002B000202A04DB203A21FA02F00021704721FABB
:1002C00002F3D040C2F12002914008431946704722
:1002D000064C074D06E0E06840F0010394E8070093
:1002E00098471034AC42F6D3FFF764FF701900084A
:1002F000A0190008FEE7704772B6FEE730B5D1E9F5
:1003000001231A43D1E903352B431A434B690C6887
:100310001A438B691A43D1E90735012C496A0468ED
:1003200007D01A432A436FF30E040A4322430260A4
:100330000AE024F4F8442B4321430B434168036053
:100340006FF30E010A434260002030BDF0B56FF03C
:100350000F05D1E9003405EB04145B1E23432E0185
:100360008C682F0306EB042423434FEA054C0C8AC8
:100370008E8ACD68097E4FF07F4E07EB04440CEB6C
:1003800006560EEB0161012A0CD082683F1107EB83
:1003900005352B432343334302F070420B43134391
:1003A00083600FE08768084A17402A03A2F580524D
:1003B0003243C5683A43234305F070450B432B4352
:1003C0008260C3600020F0BDFF0F0FFF2DE9F041F8
:1003D00086B014216846FFF751FF2B4801680029B9
:1003E0004FD14FF00108C0F8008028480024016870
:1003F00041F0010101600068022500F00100059054
:100400004FF63F00CDE9000502AA03260C2782E83B
:10041000D00069461E4800F047F802AA694682E803
:10042000D000CDE900851B4800F03EF848F23310BB
:10043000CDE9000502AA694682E8D000164800F01E
:1004400033F84FF68070CDE9000502AA694682E8CC
:10045000D000124800F028F8C020CDE9000502AA1B
:10046000694682E8D0000E4800F01EF84CF2037096
:10047000CDE9000502AA694682E8D000094800F0EB
:1004800013F806B0BDE8F0810000001038380240D3
:100490000014024000080240001802400010024010
:1004A000001C0240000C02402DE9F84FDFF8F8A1D3
:1004B000002201240AF1040B03254FF00F090BF170
:1004C000040E00BF0B6804FA02F63340B34270D149
:1004D0000F7907F00307012F01D0022F16D187688B
:1004E0004FEA420805FA08FC27EA0C07D1F80CC0CD
:1004F0000CFA08FC4CEA070CC0F808C04768B74380
:100500000E79C6F3001696403E4346600E79F643D8
:10051000B6070AD0C7684FEA420C05FA0CF6B74393
:100520008E6806FA0CF63E43C6600E7906F00306A6
:10053000022E10D1D60800EB8608D8F820605707A5
:100540004FEAD76C09FA0CF7BE430F6907FA0CF7AC
:100550003743C8F8207006684FEA420C05FA0CF7DA
:10056000BE430F7907F0030707FA0CF7374307601C
:100570004E6816F4403F1CD04C4E376847F4804715
:100580003760366822F0030706F480460096484E2E
:1005900007EB060CDCF8086897073F0F09FA07F825
:1005A00026EA0806DFF80C81404503D14FF0000829
:1005B00041E072E0DFF80081404502D14FF00108D0
:1005C00039E0DFF8F880404502D14FF0020832E010
:1005D000DFF8EC80404502D14FF003082BE0DFF854
:1005E000E480404502D14FF0040824E0DFF8D880D1
:1005F000404502D14FF005081DE0DFF8D0804045AE
:1006000002D14FF0060816E0DFF8C480404502D161
:100610004FF007080FE0DFF8BC80404502D14FF0F3
:10062000080808E0DFF8B080404502D14FF0090823
:1006300001E04FF00A0808FA07F848EA0608CCF883
:100640000888DAF800605746D1F804C09E435FEA94
:10065000CC3C00D51E433E60DBF800605F46D1F81D
:1006600004C09E435FEA8C3C00D51E433E60DEF82A
:1006700000607746D1F804C09E435FEACC2C00D5D9
:100680001E433E60084F0C373E68D1F804C09E43BD
:100690005FEA8C2C00D51E433E60521C102AFFF4EA
:1006A00011AFBDE8F88F0000003C01404438024023
:1006B00000300140000002400004024000080240F7
:1006C000000C0240001002400014024000180240DA
:1006D000001C024000200240002402400AB1816157
:1006E00070470904FBE7000001488068704700007C
:1006F0000800001002488168027811448160704748
:10070000080000100B4810B5016841F40071016049
:10071000016841F480610160016841F48071016009
:10072000032000F08DFA002000F006F800F03AFAFD
:10073000002010BD003C024070B50D4D04464FF442
:100740007A712878B1FBF0F00A490968B1FBF0F042
:1007500000F08FFE48B9102C07D200222146501E0F
:1007600000F04EFA00206C6070BD012070BD0000EA
:1007700008000010140000102DE9F041044690F824
:10078000A00016460F4601281DD0012584F8A05070
:10079000022084F8A10006EB860000EBC60004EB03
:1007A000800034223830FFF750FD3246394620466B
:1007B00000F080FE2068456284F8A150002084F893
:1007C000A000BDE8F0810220FBE770472DE9F04171
:1007D00004460068856B466B69074FF004084FF0CC
:1007E000000715D5710713D5416B21F00401416352
:1007F0002168C1F83C80D4F8A41041F00101C4F88C
:10080000A41084F8A18084F8A0702046FFF7DDFFD3
:10081000A80716D5B00714D52068416B21F0020156
:10082000416321680220C863D4F8A40040F00200AC
:10083000C4F8A40084F8A18084F8A0702046FFF7D3
:10084000C4FF05EA0600C0074FF001080ED020687B
:10085000416B21F0010141632168C1F83C8084F8BB
:10086000A18084F8A070204600F090F8280710D5E9
:1008700030070ED52068416B21F0080141632168E3
:100880000820C86384F8A18084F8A070204600F096
:1008900087F9BDE8F081000070B5040004D094F839
:1008A000A100002510B106E0012070BD84F8A05021
:1008B000204600F06DF8022084F8A10020688169CC
:1008C00021F070418161D4E901010843D4E90312A8
:1008D0001143084321688A691043886121688A6846
:1008E000294802408A60A18A0A0421688B68A669A7
:1008F000334313438B602168CA680240CA60A18BEE
:100900000B042168CA68266A32431A43CA60216808
:100910000A6902400A61A18C22680B041169A66A67
:1009200031431943116121684A6902404A61A08D2F
:10093000010420684269236B1A430A43426194F818
:1009400035002168020294F83600CB6A03F07F4339
:10095000CB622168CB6A94F8346042EA00403343AA
:100960000343CB622068416B41F00601416320687C
:10097000816941F001018161C4F8A450012084F82B
:10098000A100002070BD000000F800F070470000DA
:100990002DE9F04F87B0044614216846FFF76EFC3E
:1009A0007449206888427DD173480025016841F070
:1009B00080610160006800F0806005906E48143826
:1009C000016841F010010160016801F0100105911A
:1009D000016841F480710160016801F48071059142
:1009E000016841F020010160016801F020010591DA
:1009F000016841F080010160016801F0800105910A
:100A0000016841F001010160016801F001010591F7
:100A1000016841F002010160016801F002010591E5
:100A2000016841F040010160016801F04001059159
:100A3000016841F004010160016801F004010591C1
:100A4000016841F0080101600068022600F008001A
:100A5000059070200324CDE90006CDE902540E274D
:100A6000694604974548FFF71FFD40F21560CDE940
:100A70000006CDE90254694604974148FFF714FD8A
:100A80004FF48068CDE90254CDE9008669463D48BF
:100A90000497FFF709FD4AF20C10CDE900066946FC
:100AA000049700E062E0CDE902543748FFF7FCFC10
:100AB00041F60800CDE90006CDE9025469460497E5
:100AC0003248FFF7F1FCCDE90046DFF8C4B0CDE9CC
:100AD00002544FF0090969465846CDF81090FFF7C7
:100AE000E3FC4FF4C650CDE90006DFF8A8A0CDE93D
:100AF0000254694604975046FFF7D6FC8020CDE9A2
:100B00000006CDE90254694604972348FFF7CCFC60
:100B10004020CDE90006CDE90254694604971F48FC
:100B2000FFF7C2FCCDE90254CDE900866946504684
:100B3000CDF81090FFF7B8FC2002CDE90006CDE912
:100B40000254694604975846FFF7AEFC002211464E
:100B5000582000F055F8582000F044F800221146C3
:100B6000592000F04DF8592000F03CF807B0BDE8DE
:100B7000F08F00000068014044380240001002403D
:100B80000020024000140240001C0240000002400D
:100B9000000402400018024000080240000C02401D
:100BA000704700000E4808B5016841F480410160BB
:100BB000006800F4804000900948001F016841F07F
:100BC000805101600068002200F0805000901146C2
:100BD000052000F015F8BDE80840052000F002B837
:100BE00044380240002809DB00F01F020121914037
:100BF0004009800000F1E020C0F8001170470000BB
:100C0000F0B40E4B1B680C46C3F30223C3F1070577
:100C1000042D00D90425191D072901D2002300E065
:100C2000DB1E012606FA05F1491E214099409E402F
:100C3000761E16403143F0BC00F067BE0CED00E0BC
:100C4000064900F0070208684FF6FF03184040EA23
:100C50000220034A10430860704700000CED00E0DA
:100C60000000FA052DE9F8431748016841F080516A
:100C700001600068154F00F08050012600903E642E
:100C8000FFF732FD05464FF47A78114C05E000BFBE
:100C9000FFF72AFD401B40450DD86068C003F7D51B
:100CA0007E64FFF721FD0546464607E0FFF71CFD81
:100CB000401BB04202D90320BDE8F883606880037E
:100CC000F4D50020F8E700004038024000000E4252
:100CD000007000402DE9F84F04460068DFF824A2B8
:100CE000894F8A4DC1074FF001084FF0000603D12C
:100CF000810701D4400648D5CAF86860FFF7F4FCC4
:100D0000814605E0FFF7F0FCA0EB090002287DD842
:100D100028680001F6D42078C1077D4805D06168B5
:100D2000227A890141EA027101602178890711D58F
:100D300001686268237B9201C1F3027142EA036297
:100D400042EA017101603968E26921F01F01521E17
:100D5000114339602178490608D56168227B8901F1
:100D600041EA0261227A41EA02710160CAF86880B0
:100D7000FFF7BAFC814605E0FFF7B6FCA0EB0900DF
:100D8000022843D828680001F6D52068410701D41D
:100D900000074ED5CAF87060FFF7A6FC814605E053
:100DA000FFF7A2FCA0EB090002282FD82868C04357
:100DB0008000F5D520784107564814D5016822698E
:100DC000237D9201C1F3027142EA036242EA01719A
:100DD00001603968226A6FF0FF0321F4F85103EBD8
:100DE0000222114339602178090712D5016822696E
:100DF000C1F30361920142EA0161227E41EA02717C
:100E000001603868616A20F4403000E051E0084336
:100E10003860CAF87080FFF767FC074605E000BF3E
:100E2000FFF762FCC01B022843D82868C04380003B
:100E3000F6D42078800653D534484030016841F01C
:100E4000805101600068344D00F0805000902868A7
:100E500040F480702860FFF747FC074605E000BFBC
:100E6000FFF742FCC01B022823D82868C005F7D52D
:100E7000274D143D286810F4407020D0218D01F4D6
:100E8000407181421BD0286820F440712348C0F88B
:100E90000080066029602868C00710D0FFF724FC96
:100EA000064641F2883707E0FFF71EFC801BB84278
:100EB00002D90320BDE8F88F28688007F4D5A16A1D
:100EC0001248C1F301220830032A13D0016821F42B
:100ED000F81101602868218DC1F30B0108432860D7
:100EE0002078C00604D50E4994F82C00C1F8E00122
:100EF0000020DFE702680B4B22F4F81219400A4386
:100F00000260E7E7000047428C38024000380240A8
:100F1000843802408838024000700040400E47424A
:100F200000104742FFFCFF0F2DE9F0470E46050079
:100F300065D0DFF81481D8F80000F7B200F00F0098
:100F4000B04207D288F80070D8F8000000F00F0017
:100F5000B04254D128683D4C810712D5400703D5D3
:100F6000206840F4E05020602878000703D520680E
:100F700040F4604020602068A96820F0F000084339
:100F800020602878C0072DD03049686808390128CA
:100F900012D0022813D0032811D00968890700292C
:100FA0002DDA216821F0030101432160FFF79CFB4A
:100FB000814641F2883A0EE009688903EFE7096843
:100FC0008901ECE7FFF790FBA0EB0901514502D93D
:100FD0000320BDE8F0872068696800F00C00B0EBE2
:100FE000810FEFD1D8F80010404601F00F01B14257
:100FF00007D90770006800F00F00B04201D001204F
:10100000E7E72878400705D52068E96820F4E05034
:10101000084320602878000706D52068296920F455
:10102000604040EAC100206000F018F82168084ADA
:10103000C1F30311515CC8400649086006480068C6
:10104000FFF77AFB0020C4E7003C0240083802406A
:101050005E190008140000100C000010154810B5AF
:10106000006810F00C02144813D01449042A0FD061
:10107000082A0ED10F4C241F2268236802F03F0279
:101080005B0207D52068C0F38810A0FB010106E0D1
:10109000084610BD2168C1F38811A1FB000100239F
:1010A000FFF7A2F82168C1F30141491C4900B0FBD8
:1010B000F1F010BD083802400024F40040787D01B2
:1010C0002DE9F84F04006ED02078DFF84C93C0076C
:1010D000A9F104054AD009F104000168C1F38101B6
:1010E000012908D00068C0F3810002280AD1D9F88C
:1010F0000000400206D52868800337D560680028C4
:10110000E1D033E06068B0F5803F10D0B0F5A02F9B
:10111000286810D020F480302860286820F48020CF
:1011200028606068A8B1FFF7DFFA06460DE028687E
:1011300040F48030F4E740F480202860F7E700BFF7
:10114000FFF7D2FA801B642873D828688003F7D58C
:101150000CE0FFF7C9FA064605E000BFFFF7C4FA46
:10116000801B6428F0D828688003F7D42078DFF843
:10117000AC8280074FF0000A3ED5A748001D0168E9
:1011800011F00C0F08D00068C0F3810002280BD1C9
:10119000D9F80000400207D42868800716D5E06817
:1011A000012800D112E033E1E068B8B10120C8F8AD
:1011B0000000FFF799FA064605E000BFFFF794FA32
:1011C000801B0228C0D828688007F7D528682169C5
:1011D00020F0F80040EAC10028600DE0C8F800A047
:1011E000FFF782FA064604E0FFF77EFA801B02282A
:1011F0001FD828688007F7D42078000722D5864FAB
:1012000087486169703771B101210160FFF76CFA9D
:10121000064604E0FFF768FA801B022809D8386800
:101220008007F7D50EE0C0F800A0FFF75DFA06468C
:1012300005E082E0FFF758FA801B02287DD8386865
:101240008007F7D42078400768D5DFF8CCB10027B5
:101250000BF13C0BDBF80000C0000BD4DBF80010F6
:1012600041F08051CBF80010DBF80000012700F0BE
:10127000805000906B4E3068C00510D4306840F448
:1012800080703060FFF730FA009005E0FFF72CFA2D
:101290000099401A022850D83068C005F6D55E4E35
:1012A000A0686C3601280FD00528306810D020F0D7
:1012B00001003060306820F004003060A068B8B1F0
:1012C000FFF712FA00900FE0306840F00100F4E7F9
:1012D00040F004003060F7E7FFF706FA0099411A82
:1012E00041F28830814266D830688007F4D50EE03C
:1012F000FFF7FAF9009007E0FFF7F6F90099411AB5
:1013000041F28830814256D830688007F4D42FB13A
:10131000DBF8001021F08051CBF80010A069C8B3B1
:101320003D49091D0968C1F3810102294AD00228FB
:10133000504607D0C8F8600000E03CE0FFF7D4F961
:1013400004463BE04746C8F86000FFF7CDF9064683
:1013500005E000BFFFF7C8F9801B02282BD82868DA
:101360008001F7D4D4E907010843A16A2E4A49084D
:1013700002EB0141626A41EA8211084394F82C10A1
:1013800040EA0161C9F8001001203866FFF7ACF9A6
:10139000044606E03EE000BFFFF7A6F9001B022866
:1013A00009D828688001F7D534E000BFFFF79CF921
:1013B000001B022802D90320BDE8F88F28688001AD
:1013C000F4D427E00128F7D0D9F80000E26900F44E
:1013D000800191421CD1226A00F03F01914217D155
:1013E00047F6C071626A0140B1EB821F10D1A26A58
:1013F0004FF0FF3300F4403103EB5202B1EB024FE8
:1014000006D194F82C1000F07060B0EB016F01D0A1
:101410000120D1E70020CFE7043802400000474216
:10142000800E4742007000400000FFFF70B50D467F
:10143000040003D094F82C0010B107E0012070BD27
:10144000002084F82D00204600F011F8022084F8D6
:101450002C00211D2068FEF751FFD4E90002294627
:10146000FEF774FF012084F82C00002070BDFEF709
:10147000ADBF10B5401EB0F1807F01D3012010BD7B
:101480004FF0E02460610F21601700F03EFA002069
:10149000A06107202061002010BDFEE70148FFF792
:1014A00095B900004C0000100148FFF78FB900000B
:1014B0004C000010F0B503688C88DD68C5F30B455F
:1014C0002C442504882404EBC2141E5906F47046EB
:1014D0001E5103680F68DE68C6F30B46761C3E4457
:1014E0002E431E5104688B89E568C5F30A052B4419
:1014F0001D048C2303EBC213E65806F47046E65035
:1015000004688F68E668C6F30A06761C3E442E43DC
:10151000E6509423046803EBC213E55825F0070551
:10152000E55005680C69EC5091F831300C7E1F02D3
:1015300026069C24056804EBC21491F8323055F855
:1015400004C04FF0000C45F804C091F8305046EA52
:1015500003433D431D4303681D519823046803EB77
:10156000C213E55825F0FF05E55005684C69EC50BD
:10157000A023046803EBC213E55840F20776B54395
:10158000E550D1E907452C430568EC50AC230468CD
:1015900003EBC213E55844F803C005684C6AEC50ED
:1015A0000B698BB3012B32D0042B32D0022B30D0FD
:1015B000032B2ED0072B2CD00123B024056804EB7D
:1015C000C2142E5906F0E0262E51D1E90065AD1B5C
:1015D0000E8D5D435E43ED1C45EA064305682B51C5
:1015E000B423046803EBC213E5586FF30A05E55012
:1015F0000468C96AE1500068842101EBC2114258B5
:1016000042F001024250F0BDFFE70423D5E7032377
:10161000D3E70223D1E7000000B587B01C2168465C
:10162000FEF72CFE1448134900F1080C016001215B
:1016300041600021042210238CE80E004023436106
:101640009301C0E906315302C0E9083181620220EA
:1016500007218DE8070003910321CDE904100690CE
:1016600069460548FFF7E2FE002801D0FEF744FE78
:1016700007B000BD400100A018000010F0B587B011
:1016800014216846FEF7FAFD36480024016841F04F
:1016900010010160016801F010010591016841F439
:1016A00080710160016801F480710591016841F069
:1016B00020010160016801F020010591016841F0FD
:1016C00080010160016801F080010591016841F02D
:1016D00004010160016801F004010591016841F015
:1016E00001010160016801F001010591016841F00B
:1016F00002010160016801F002010591016841F0F9
:1017000040010160016801F040010591016841F06C
:10171000080101600068144E00F008004FF4806575
:101720000590002229463046FEF7D8FF0F4F0022D1
:1017300080213846FEF7D2FF0320CDE90240009514
:101740000125694601953046FEF7AEFE80200090E7
:10175000CDE90154694638460394FEF7A5FE07B06B
:10176000F0BD000030380240001C0240000C024076
:1017700010B58EB034216846FEF780FD012280212D
:101780002648FEF7ABFF274825490024C0E900148E
:101790008460C46004612E214461C0E906411721C0
:1017A000016240F24E31416240F2F711816240F233
:1017B0006231C16240F20D21016380F8344080F84B
:1017C000354080F83640FFF767F808B1FEF794FD22
:1017D0004FF44870CDE900404FF4F07102220294BA
:1017E000CDE903124FF48063CDE90643FF22059251
:1017F00005238DF83020CDE90A01CDE908348DF8B4
:1018000031408DF83240002269460648FEF7B4FFA9
:10181000002801D0FEF770FD0EB010BD000C024094
:10182000006801404C000010FEE7FEE7704770477B
:101830007047FEF75FBF000070B59EB0302168466C
:10184000FEF71CFD142118A8FEF718FD30210CA886
:10185000FEF714FD26480025016841F08051016023
:10186000006800F080501D902248016841F440411A
:1018700001600068022400F440401D9001200090A7
:10188000000401908001CDE906400F260896D8207B
:10189000CDE9090404200B906846FFF711FC08B15C
:1018A00072B6FEE7FFF7DEF908B172B6FEE74FF455
:1018B000A050CDE91A504FF48050CDE918641C9027
:1018C000052118A8FFF730FB08B172B6FEE7082023
:1018D0000C90C62010900520129015950CA8FFF7CB
:1018E000F9F9002801D072B6FEE71EB070BD000005
:1018F00040380240007000400248016841F4700125
:101900000160704788ED00E0FEE70907090E002836
:1019100004DB00F1E02080F80014704700F00F00B5
:1019200000F1E02080F8141D704702E008C8121F83
:1019300008C1002AFAD170477047002001E001C1B8
:10194000121F002AFBD17047FEF7DCFEFFF774FF81
:10195000FFF794FEFFF70CFFFFF75EFEFEE70000C7
:10196000000000000000010203040607080900004F
:10197000A019000800000010180000002A19000833
:10198000A019000800000020000003003A19000818
:10199000B819000818000010DC0000003A1900080F
:1019A0000000000000000000010000001000000026
:0819B000000000000024F40017
:04000005080001AD41
:00000001FF
